{
  "_format": "hh-sol-artifact-1",
  "contractName": "Lottery",
  "sourceName": "contracts/Lottery.sol",
  "abi": [
    {
      "anonymous": false,
      "inputs": [
        {
          "indexed": true,
          "internalType": "address",
          "name": "buyer",
          "type": "address"
        },
        {
          "indexed": false,
          "internalType": "uint256",
          "name": "numberOfTickets",
          "type": "uint256"
        },
        {
          "indexed": false,
          "internalType": "uint256",
          "name": "paidAmount",
          "type": "uint256"
        }
      ],
      "name": "BuyTicket",
      "type": "event"
    },
    {
      "anonymous": false,
      "inputs": [
        {
          "indexed": true,
          "internalType": "address",
          "name": "previousOwner",
          "type": "address"
        },
        {
          "indexed": true,
          "internalType": "address",
          "name": "newOwner",
          "type": "address"
        }
      ],
      "name": "OwnershipTransferred",
      "type": "event"
    },
    {
      "inputs": [
        {
          "internalType": "uint256",
          "name": "numberOfTickets",
          "type": "uint256"
        },
        {
          "internalType": "address",
          "name": "referral",
          "type": "address"
        }
      ],
      "name": "buyTicket",
      "outputs": [],
      "stateMutability": "payable",
      "type": "function"
    },
    {
      "inputs": [
        {
          "internalType": "uint256",
          "name": "numberOfTickets",
          "type": "uint256"
        }
      ],
      "name": "buyTicket",
      "outputs": [],
      "stateMutability": "payable",
      "type": "function"
    },
    {
      "inputs": [],
      "name": "company",
      "outputs": [
        {
          "internalType": "address",
          "name": "",
          "type": "address"
        }
      ],
      "stateMutability": "view",
      "type": "function"
    },
    {
      "inputs": [
        {
          "internalType": "address",
          "name": "member",
          "type": "address"
        }
      ],
      "name": "memberSupply",
      "outputs": [
        {
          "internalType": "uint256",
          "name": "",
          "type": "uint256"
        }
      ],
      "stateMutability": "view",
      "type": "function"
    },
    {
      "inputs": [],
      "name": "owner",
      "outputs": [
        {
          "internalType": "address",
          "name": "",
          "type": "address"
        }
      ],
      "stateMutability": "view",
      "type": "function"
    },
    {
      "inputs": [
        {
          "internalType": "uint256",
          "name": "ticketId",
          "type": "uint256"
        }
      ],
      "name": "ownerOf",
      "outputs": [
        {
          "internalType": "address",
          "name": "",
          "type": "address"
        }
      ],
      "stateMutability": "view",
      "type": "function"
    },
    {
      "inputs": [],
      "name": "renounceOwnership",
      "outputs": [],
      "stateMutability": "nonpayable",
      "type": "function"
    },
    {
      "inputs": [
        {
          "internalType": "address",
          "name": "newAddr",
          "type": "address"
        }
      ],
      "name": "setCompanyAddr",
      "outputs": [],
      "stateMutability": "nonpayable",
      "type": "function"
    },
    {
      "inputs": [
        {
          "internalType": "uint256",
          "name": "newNum",
          "type": "uint256"
        }
      ],
      "name": "setNumberOfWinners",
      "outputs": [],
      "stateMutability": "nonpayable",
      "type": "function"
    },
    {
      "inputs": [
        {
          "internalType": "address",
          "name": "newAddr",
          "type": "address"
        }
      ],
      "name": "setTeamAddr",
      "outputs": [],
      "stateMutability": "nonpayable",
      "type": "function"
    },
    {
      "inputs": [
        {
          "internalType": "uint256",
          "name": "_ticketPriceInCents",
          "type": "uint256"
        }
      ],
      "name": "setTicketPriceInCents",
      "outputs": [],
      "stateMutability": "nonpayable",
      "type": "function"
    },
    {
      "inputs": [],
      "name": "team",
      "outputs": [
        {
          "internalType": "address",
          "name": "",
          "type": "address"
        }
      ],
      "stateMutability": "view",
      "type": "function"
    },
    {
      "inputs": [],
      "name": "ticketPriceInCents",
      "outputs": [
        {
          "internalType": "uint256",
          "name": "",
          "type": "uint256"
        }
      ],
      "stateMutability": "view",
      "type": "function"
    },
    {
      "inputs": [],
      "name": "ticketPriceInWei",
      "outputs": [
        {
          "internalType": "uint256",
          "name": "",
          "type": "uint256"
        }
      ],
      "stateMutability": "view",
      "type": "function"
    },
    {
      "inputs": [],
      "name": "totalPrize",
      "outputs": [
        {
          "internalType": "uint256",
          "name": "",
          "type": "uint256"
        }
      ],
      "stateMutability": "view",
      "type": "function"
    },
    {
      "inputs": [
        {
          "internalType": "address",
          "name": "newOwner",
          "type": "address"
        }
      ],
      "name": "transferOwnership",
      "outputs": [],
      "stateMutability": "nonpayable",
      "type": "function"
    },
    {
      "inputs": [],
      "name": "trigger",
      "outputs": [],
      "stateMutability": "nonpayable",
      "type": "function"
    },
    {
      "inputs": [],
      "name": "winners",
      "outputs": [
        {
          "internalType": "address[]",
          "name": "winners_",
          "type": "address[]"
        }
      ],
      "stateMutability": "view",
      "type": "function"
    }
  ],
  "bytecode": "0x60806040523480156200001157600080fd5b506200003262000026620000ea60201b60201c565b620000f260201b60201c565b730ce446255506e92df41614c46f1d6df9cc969183600260006101000a81548173ffffffffffffffffffffffffffffffffffffffff021916908373ffffffffffffffffffffffffffffffffffffffff160217905550730ce446255506e92df41614c46f1d6df9cc969183600360006101000a81548173ffffffffffffffffffffffffffffffffffffffff021916908373ffffffffffffffffffffffffffffffffffffffff160217905550600a600881905550620001b6565b600033905090565b60008060009054906101000a900473ffffffffffffffffffffffffffffffffffffffff169050816000806101000a81548173ffffffffffffffffffffffffffffffffffffffff021916908373ffffffffffffffffffffffffffffffffffffffff1602179055508173ffffffffffffffffffffffffffffffffffffffff168173ffffffffffffffffffffffffffffffffffffffff167f8be0079c531659141344cd1fd0a4f28419497f9722a3daafe3b4186f6b6457e060405160405180910390a35050565b6124ca80620001c66000396000f3fe6080604052600436106101095760003560e01c806385f2aef211610095578063a54e86cb11610064578063a54e86cb14610305578063c81620681461032e578063dbe30e0c14610357578063efc08a6214610394578063f2fde38b146103bf57610109565b806385f2aef21461025b5780638da5cb5b14610286578063901889ba146102b1578063a487bcd8146102da57610109565b80636904c94d116100dc5780636904c94d146101ae5780636dfb0386146101d9578063715018a6146102025780637fec8d381461021957806382b1ad501461023057610109565b80632342b06a1461010e57806362a845ec146101395780636352211e1461015557806367dd74ca14610192575b600080fd5b34801561011a57600080fd5b506101236103e8565b6040516101309190611b00565b60405180910390f35b610153600480360381019061014e9190611baa565b6103ee565b005b34801561016157600080fd5b5061017c60048036038101906101779190611bea565b61045e565b6040516101899190611c26565b60405180910390f35b6101ac60048036038101906101a79190611bea565b61047e565b005b3480156101ba57600080fd5b506101c361048c565b6040516101d09190611c26565b60405180910390f35b3480156101e557600080fd5b5061020060048036038101906101fb9190611bea565b6104b2565b005b34801561020e57600080fd5b50610217610538565b005b34801561022557600080fd5b5061022e6105c0565b005b34801561023c57600080fd5b50610245610666565b6040516102529190611b00565b60405180910390f35b34801561026757600080fd5b50610270610673565b60405161027d9190611c26565b60405180910390f35b34801561029257600080fd5b5061029b610699565b6040516102a89190611c26565b60405180910390f35b3480156102bd57600080fd5b506102d860048036038101906102d39190611c41565b6106c2565b005b3480156102e657600080fd5b506102ef610796565b6040516102fc9190611d2c565b60405180910390f35b34801561031157600080fd5b5061032c60048036038101906103279190611bea565b610875565b005b34801561033a57600080fd5b5061035560048036038101906103509190611c41565b6108fb565b005b34801561036357600080fd5b5061037e60048036038101906103799190611c41565b6109cf565b60405161038b9190611b00565b60405180910390f35b3480156103a057600080fd5b506103a9610a1b565b6040516103b69190611b00565b60405180910390f35b3480156103cb57600080fd5b506103e660048036038101906103e19190611c41565b610a43565b005b60015481565b600033905060003490506104028185610b3b565b61040c8284610bac565b61042d6064601e8361041e9190611d7d565b6104289190611e06565b610da6565b61044e606460468361043f9190611d7d565b6104499190611e06565b610eee565b6104588285610f0d565b50505050565b6000610477826009600201610fda90919063ffffffff16565b9050919050565b6104898160006103ee565b50565b600360009054906101000a900473ffffffffffffffffffffffffffffffffffffffff1681565b6104ba610ff7565b73ffffffffffffffffffffffffffffffffffffffff166104d8610699565b73ffffffffffffffffffffffffffffffffffffffff161461052e576040517f08c379a000000000000000000000000000000000000000000000000000000000815260040161052590611e94565b60405180910390fd5b8060088190555050565b610540610ff7565b73ffffffffffffffffffffffffffffffffffffffff1661055e610699565b73ffffffffffffffffffffffffffffffffffffffff16146105b4576040517f08c379a00000000000000000000000000000000000000000000000000000000081526004016105ab90611e94565b60405180910390fd5b6105be6000610fff565b565b6105c8610ff7565b73ffffffffffffffffffffffffffffffffffffffff166105e6610699565b73ffffffffffffffffffffffffffffffffffffffff161461063c576040517f08c379a000000000000000000000000000000000000000000000000000000000815260040161063390611e94565b60405180910390fd5b6106446110c3565b61065c61064f610796565b610657610666565b611199565b6106646111f2565b565b6000600960000154905090565b600260009054906101000a900473ffffffffffffffffffffffffffffffffffffffff1681565b60008060009054906101000a900473ffffffffffffffffffffffffffffffffffffffff16905090565b600360009054906101000a900473ffffffffffffffffffffffffffffffffffffffff1673ffffffffffffffffffffffffffffffffffffffff163373ffffffffffffffffffffffffffffffffffffffff1614610752576040517f08c379a000000000000000000000000000000000000000000000000000000000815260040161074990611f00565b60405180910390fd5b80600360006101000a81548173ffffffffffffffffffffffffffffffffffffffff021916908373ffffffffffffffffffffffffffffffffffffffff16021790555050565b606060006107a46006611235565b90508067ffffffffffffffff8111156107c0576107bf611f20565b5b6040519080825280602002602001820160405280156107ee5781602001602082028036833780820191505090505b50915060005b818110156108705761081081600661124a90919063ffffffff16565b83828151811061082357610822611f4f565b5b602002602001019073ffffffffffffffffffffffffffffffffffffffff16908173ffffffffffffffffffffffffffffffffffffffff1681525050808061086890611f7e565b9150506107f4565b505090565b61087d610ff7565b73ffffffffffffffffffffffffffffffffffffffff1661089b610699565b73ffffffffffffffffffffffffffffffffffffffff16146108f1576040517f08c379a00000000000000000000000000000000000000000000000000000000081526004016108e890611e94565b60405180910390fd5b8060018190555050565b600260009054906101000a900473ffffffffffffffffffffffffffffffffffffffff1673ffffffffffffffffffffffffffffffffffffffff163373ffffffffffffffffffffffffffffffffffffffff161461098b576040517f08c379a000000000000000000000000000000000000000000000000000000000815260040161098290611f00565b60405180910390fd5b80600260006101000a81548173ffffffffffffffffffffffffffffffffffffffff021916908373ffffffffffffffffffffffffffffffffffffffff16021790555050565b6000600960050160008373ffffffffffffffffffffffffffffffffffffffff1673ffffffffffffffffffffffffffffffffffffffff168152602001908152602001600020549050919050565b60006064600154610a2a611264565b610a349190611d7d565b610a3e9190611e06565b905090565b610a4b610ff7565b73ffffffffffffffffffffffffffffffffffffffff16610a69610699565b73ffffffffffffffffffffffffffffffffffffffff1614610abf576040517f08c379a0000000000000000000000000000000000000000000000000000000008152600401610ab690611e94565b60405180910390fd5b600073ffffffffffffffffffffffffffffffffffffffff168173ffffffffffffffffffffffffffffffffffffffff161415610b2f576040517f08c379a0000000000000000000000000000000000000000000000000000000008152600401610b2690612039565b60405180910390fd5b610b3881610fff565b50565b6064605f610b47610a1b565b83610b529190611d7d565b610b5c9190611d7d565b610b669190611e06565b821015610ba8576040517f08c379a0000000000000000000000000000000000000000000000000000000008152600401610b9f906120a5565b60405180910390fd5b5050565b600560008373ffffffffffffffffffffffffffffffffffffffff1673ffffffffffffffffffffffffffffffffffffffff16815260200190815260200160002060009054906101000a900460ff16610c56576001600560008473ffffffffffffffffffffffffffffffffffffffff1673ffffffffffffffffffffffffffffffffffffffff16815260200190815260200160002060006101000a81548160ff0219169083151502179055505b600073ffffffffffffffffffffffffffffffffffffffff168173ffffffffffffffffffffffffffffffffffffffff1614158015610d1e5750600073ffffffffffffffffffffffffffffffffffffffff16600460008473ffffffffffffffffffffffffffffffffffffffff1673ffffffffffffffffffffffffffffffffffffffff16815260200190815260200160002060009054906101000a900473ffffffffffffffffffffffffffffffffffffffff1673ffffffffffffffffffffffffffffffffffffffff16145b15610da25780600460008473ffffffffffffffffffffffffffffffffffffffff1673ffffffffffffffffffffffffffffffffffffffff16815260200190815260200160002060006101000a81548173ffffffffffffffffffffffffffffffffffffffff021916908373ffffffffffffffffffffffffffffffffffffffff1602179055505b5050565b600073ffffffffffffffffffffffffffffffffffffffff16600460003373ffffffffffffffffffffffffffffffffffffffff1673ffffffffffffffffffffffffffffffffffffffff16815260200190815260200160002060009054906101000a900473ffffffffffffffffffffffffffffffffffffffff1673ffffffffffffffffffffffffffffffffffffffff161415610e4857610e4381611304565b610eeb565b610ec9601e600583610e5a9190611d7d565b610e649190611e06565b600460003373ffffffffffffffffffffffffffffffffffffffff1673ffffffffffffffffffffffffffffffffffffffff16815260200190815260200160002060009054906101000a900473ffffffffffffffffffffffffffffffffffffffff166113b8565b610eea601e601983610edb9190611d7d565b610ee59190611e06565b611591565b5b50565b8060096000016000828254610f0391906120c5565b9250508190555050565b6000610f17611645565b905060005b82811015610f5f57610f3d828560096002016116529092919063ffffffff16565b508180610f4990611f7e565b9250508080610f5790611f7e565b915050610f1c565b5081600960050160008573ffffffffffffffffffffffffffffffffffffffff1673ffffffffffffffffffffffffffffffffffffffff1681526020019081526020016000206000828254610fb291906120c5565b925050819055508160096001016000828254610fce91906120c5565b92505081905550505050565b6000610fec836000018360001b611687565b60001c905092915050565b600033905090565b60008060009054906101000a900473ffffffffffffffffffffffffffffffffffffffff169050816000806101000a81548173ffffffffffffffffffffffffffffffffffffffff021916908373ffffffffffffffffffffffffffffffffffffffff1602179055508173ffffffffffffffffffffffffffffffffffffffff168173ffffffffffffffffffffffffffffffffffffffff167f8be0079c531659141344cd1fd0a4f28419497f9722a3daafe3b4186f6b6457e060405160405180910390a35050565b60006110cd611645565b9050600854811015611114576040517f08c379a000000000000000000000000000000000000000000000000000000000815260040161110b9061218d565b60405180910390fd5b61111c611703565b6000805b60085461112d6006611235565b1015611194578261113d83611721565b61114791906121ad565b91506111528261045e565b905061116b82600960020161175890919063ffffffff16565b508280611177906121de565b93505061118e81600661177290919063ffffffff16565b50611120565b505050565b60008251905060005b818110156111ec576111d98482815181106111c0576111bf611f4f565b5b602002602001015183856111d49190611e06565b6117a2565b80806111e490611f7e565b9150506111a2565b50505050565b6009600080820160009055600182016000905560028201600080820160008082016000808201600080820160006112299190611aa9565b50505050505050505050565b6000611243826000016117ed565b9050919050565b600061125983600001836117fe565b60001c905092915050565b600073d0d5e3db44de05e9f294bb0a3beeaf030de24ada73ffffffffffffffffffffffffffffffffffffffff166350d25bcd6040518163ffffffff1660e01b8152600401602060405180830381865afa1580156112c5573d6000803e3d6000fd5b505050506040513d601f19601f820116820180604052508101906112e9919061223e565b6a52b7d2dcc80cd2e40000006112ff919061226b565b905090565b61132d61130f610699565b601e60058461131e9190611d7d565b6113289190611e06565b6117a2565b611371600260009054906101000a900473ffffffffffffffffffffffffffffffffffffffff16601e6005846113629190611d7d565b61136c9190611e06565b6117a2565b6113b5600360009054906101000a900473ffffffffffffffffffffffffffffffffffffffff16601e6014846113a69190611d7d565b6113b09190611e06565b6117a2565b50565b600560008273ffffffffffffffffffffffffffffffffffffffff1673ffffffffffffffffffffffffffffffffffffffff16815260200190815260200160002060009054906101000a900460ff16611444576040517f08c379a000000000000000000000000000000000000000000000000000000000815260040161143b90612347565b60405180910390fd5b60005b60018161145491906120c5565b9050600073ffffffffffffffffffffffffffffffffffffffff16600460008473ffffffffffffffffffffffffffffffffffffffff1673ffffffffffffffffffffffffffffffffffffffff16815260200190815260200160002060009054906101000a900473ffffffffffffffffffffffffffffffffffffffff1673ffffffffffffffffffffffffffffffffffffffff16141580156114f25750600581105b6114475760005b8181101561158b576115168383866115119190611e06565b6117a2565b600460008473ffffffffffffffffffffffffffffffffffffffff1673ffffffffffffffffffffffffffffffffffffffff16815260200190815260200160002060009054906101000a900473ffffffffffffffffffffffffffffffffffffffff169250808061158390611f7e565b9150506114f9565b50505050565b6115ba61159c610699565b60196005846115ab9190611d7d565b6115b59190611e06565b6117a2565b6115fe600260009054906101000a900473ffffffffffffffffffffffffffffffffffffffff1660196005846115ef9190611d7d565b6115f99190611e06565b6117a2565b611642600360009054906101000a900473ffffffffffffffffffffffffffffffffffffffff1660196014846116339190611d7d565b61163d9190611e06565b6117a2565b50565b6000600960010154905090565b600061167e846000018460001b8473ffffffffffffffffffffffffffffffffffffffff1660001b611829565b90509392505050565b6000808360020160008481526020019081526020016000205490506000801b811415806116ba57506116b98484611864565b5b6116f9576040517f08c379a00000000000000000000000000000000000000000000000000000000081526004016116f0906123b3565b60405180910390fd5b8091505092915050565b600660008082016000808201600061171b9190611aa9565b50505050565b6000444283604051602001611738939291906123f4565b6040516020818303038152906040528051906020012060001c9050919050565b600061176a836000018360001b611884565b905092915050565b600061179a836000018373ffffffffffffffffffffffffffffffffffffffff1660001b6118bd565b905092915050565b8173ffffffffffffffffffffffffffffffffffffffff166108fc829081150290604051600060405180830381858888f193505050501580156117e8573d6000803e3d6000fd5b505050565b600081600001805490509050919050565b600082600001828154811061181657611815611f4f565b5b9060005260206000200154905092915050565b6000818460020160008581526020019081526020016000208190555061185b838560000161192d90919063ffffffff16565b90509392505050565b600061187c828460000161194490919063ffffffff16565b905092915050565b6000826002016000838152602001908152602001600020600090556118b5828460000161195b90919063ffffffff16565b905092915050565b60006118c98383611972565b611922578260000182908060018154018082558091505060019003906000526020600020016000909190919091505582600001805490508360010160008481526020019081526020016000208190555060019050611927565b600090505b92915050565b600061193c83600001836118bd565b905092915050565b60006119538360000183611972565b905092915050565b600061196a8360000183611995565b905092915050565b600080836001016000848152602001908152602001600020541415905092915050565b60008083600101600084815260200190815260200160002054905060008114611a9d5760006001826119c79190612431565b90506000600186600001805490506119df9190612431565b9050818114611a4e576000866000018281548110611a00576119ff611f4f565b5b9060005260206000200154905080876000018481548110611a2457611a23611f4f565b5b90600052602060002001819055508387600101600083815260200190815260200160002081905550505b85600001805480611a6257611a61612465565b5b600190038181906000526020600020016000905590558560010160008681526020019081526020016000206000905560019350505050611aa3565b60009150505b92915050565b5080546000825590600052602060002090810190611ac79190611aca565b50565b5b80821115611ae3576000816000905550600101611acb565b5090565b6000819050919050565b611afa81611ae7565b82525050565b6000602082019050611b156000830184611af1565b92915050565b600080fd5b611b2981611ae7565b8114611b3457600080fd5b50565b600081359050611b4681611b20565b92915050565b600073ffffffffffffffffffffffffffffffffffffffff82169050919050565b6000611b7782611b4c565b9050919050565b611b8781611b6c565b8114611b9257600080fd5b50565b600081359050611ba481611b7e565b92915050565b60008060408385031215611bc157611bc0611b1b565b5b6000611bcf85828601611b37565b9250506020611be085828601611b95565b9150509250929050565b600060208284031215611c0057611bff611b1b565b5b6000611c0e84828501611b37565b91505092915050565b611c2081611b6c565b82525050565b6000602082019050611c3b6000830184611c17565b92915050565b600060208284031215611c5757611c56611b1b565b5b6000611c6584828501611b95565b91505092915050565b600081519050919050565b600082825260208201905092915050565b6000819050602082019050919050565b611ca381611b6c565b82525050565b6000611cb58383611c9a565b60208301905092915050565b6000602082019050919050565b6000611cd982611c6e565b611ce38185611c79565b9350611cee83611c8a565b8060005b83811015611d1f578151611d068882611ca9565b9750611d1183611cc1565b925050600181019050611cf2565b5085935050505092915050565b60006020820190508181036000830152611d468184611cce565b905092915050565b7f4e487b7100000000000000000000000000000000000000000000000000000000600052601160045260246000fd5b6000611d8882611ae7565b9150611d9383611ae7565b9250817fffffffffffffffffffffffffffffffffffffffffffffffffffffffffffffffff0483118215151615611dcc57611dcb611d4e565b5b828202905092915050565b7f4e487b7100000000000000000000000000000000000000000000000000000000600052601260045260246000fd5b6000611e1182611ae7565b9150611e1c83611ae7565b925082611e2c57611e2b611dd7565b5b828204905092915050565b600082825260208201905092915050565b7f4f776e61626c653a2063616c6c6572206973206e6f7420746865206f776e6572600082015250565b6000611e7e602083611e37565b9150611e8982611e48565b602082019050919050565b60006020820190508181036000830152611ead81611e71565b9050919050565b7f5061796d656e74733a20796f752068617665206e6f7420616363657373000000600082015250565b6000611eea601d83611e37565b9150611ef582611eb4565b602082019050919050565b60006020820190508181036000830152611f1981611edd565b9050919050565b7f4e487b7100000000000000000000000000000000000000000000000000000000600052604160045260246000fd5b7f4e487b7100000000000000000000000000000000000000000000000000000000600052603260045260246000fd5b6000611f8982611ae7565b91507fffffffffffffffffffffffffffffffffffffffffffffffffffffffffffffffff821415611fbc57611fbb611d4e565b5b600182019050919050565b7f4f776e61626c653a206e6577206f776e657220697320746865207a65726f206160008201527f6464726573730000000000000000000000000000000000000000000000000000602082015250565b6000612023602683611e37565b915061202e82611fc7565b604082019050919050565b6000602082019050818103600083015261205281612016565b9050919050565b7f4c6f74746572793a20696e73756666696369656e742066656500000000000000600082015250565b600061208f601983611e37565b915061209a82612059565b602082019050919050565b600060208201905081810360008301526120be81612082565b9050919050565b60006120d082611ae7565b91506120db83611ae7565b9250827fffffffffffffffffffffffffffffffffffffffffffffffffffffffffffffffff038211156121105761210f611d4e565b5b828201905092915050565b7f5469636b6574733a206e756d626572206f66207469636b65747320686173206e60008201527f6f74206265656e20726561636865642074686520716f7572756d000000000000602082015250565b6000612177603a83611e37565b91506121828261211b565b604082019050919050565b600060208201905081810360008301526121a68161216a565b9050919050565b60006121b882611ae7565b91506121c383611ae7565b9250826121d3576121d2611dd7565b5b828206905092915050565b60006121e982611ae7565b915060008214156121fd576121fc611d4e565b5b600182039050919050565b6000819050919050565b61221b81612208565b811461222657600080fd5b50565b60008151905061223881612212565b92915050565b60006020828403121561225457612253611b1b565b5b600061226284828501612229565b91505092915050565b600061227682612208565b915061228183612208565b92508261229157612290611dd7565b5b600160000383147f8000000000000000000000000000000000000000000000000000000000000000831416156122ca576122c9611d4e565b5b828205905092915050565b7f4c6f74746572793a20756e7265676973746572656420726566657272616c206160008201527f6464726573730000000000000000000000000000000000000000000000000000602082015250565b6000612331602683611e37565b915061233c826122d5565b604082019050919050565b6000602082019050818103600083015261236081612324565b9050919050565b7f456e756d657261626c654d61703a206e6f6e6578697374656e74206b65790000600082015250565b600061239d601e83611e37565b91506123a882612367565b602082019050919050565b600060208201905081810360008301526123cc81612390565b9050919050565b6000819050919050565b6123ee6123e982611ae7565b6123d3565b82525050565b600061240082866123dd565b60208201915061241082856123dd565b60208201915061242082846123dd565b602082019150819050949350505050565b600061243c82611ae7565b915061244783611ae7565b92508282101561245a57612459611d4e565b5b828203905092915050565b7f4e487b7100000000000000000000000000000000000000000000000000000000600052603160045260246000fdfea264697066735822122005c5750f3e4858cbeffbced4120d7e5dcd43e7a54265f0a29089ed5ed97284e464736f6c634300080b0033",
  "linkReferences": {},
  "deployedLinkReferences": {}
}