{
  "_format": "hh-sol-artifact-1",
  "contractName": "Lottery",
  "sourceName": "contracts/Lottery.sol",
  "abi": [
    {
      "anonymous": false,
      "inputs": [
        {
          "indexed": true,
          "internalType": "address",
          "name": "buyer",
          "type": "address"
        },
        {
          "indexed": false,
          "internalType": "uint256",
          "name": "numberOfTickets",
          "type": "uint256"
        },
        {
          "indexed": false,
          "internalType": "uint256",
          "name": "paidAmount",
          "type": "uint256"
        }
      ],
      "name": "BuyTicket",
      "type": "event"
    },
    {
      "anonymous": false,
      "inputs": [
        {
          "indexed": true,
          "internalType": "address",
          "name": "previousOwner",
          "type": "address"
        },
        {
          "indexed": true,
          "internalType": "address",
          "name": "newOwner",
          "type": "address"
        }
      ],
      "name": "OwnershipTransferred",
      "type": "event"
    },
    {
      "inputs": [
        {
          "internalType": "uint256",
          "name": "numberOfTickets",
          "type": "uint256"
        },
        {
          "internalType": "address",
          "name": "referral",
          "type": "address"
        }
      ],
      "name": "buyTicket",
      "outputs": [],
      "stateMutability": "payable",
      "type": "function"
    },
    {
      "inputs": [
        {
          "internalType": "uint256",
          "name": "numberOfTickets",
          "type": "uint256"
        }
      ],
      "name": "buyTicket",
      "outputs": [],
      "stateMutability": "payable",
      "type": "function"
    },
    {
      "inputs": [],
      "name": "company",
      "outputs": [
        {
          "internalType": "address",
          "name": "",
          "type": "address"
        }
      ],
      "stateMutability": "view",
      "type": "function"
    },
    {
      "inputs": [
        {
          "internalType": "address",
          "name": "member",
          "type": "address"
        }
      ],
      "name": "memberSupply",
      "outputs": [
        {
          "internalType": "uint256",
          "name": "",
          "type": "uint256"
        }
      ],
      "stateMutability": "view",
      "type": "function"
    },
    {
      "inputs": [],
      "name": "owner",
      "outputs": [
        {
          "internalType": "address",
          "name": "",
          "type": "address"
        }
      ],
      "stateMutability": "view",
      "type": "function"
    },
    {
      "inputs": [
        {
          "internalType": "uint256",
          "name": "ticketId",
          "type": "uint256"
        }
      ],
      "name": "ownerOf",
      "outputs": [
        {
          "internalType": "address",
          "name": "",
          "type": "address"
        }
      ],
      "stateMutability": "view",
      "type": "function"
    },
    {
      "inputs": [],
      "name": "renounceOwnership",
      "outputs": [],
      "stateMutability": "nonpayable",
      "type": "function"
    },
    {
      "inputs": [],
      "name": "roundHasStarted",
      "outputs": [
        {
          "internalType": "bool",
          "name": "",
          "type": "bool"
        }
      ],
      "stateMutability": "view",
      "type": "function"
    },
    {
      "inputs": [
        {
          "internalType": "address",
          "name": "newAddr",
          "type": "address"
        }
      ],
      "name": "setCompanyAddr",
      "outputs": [],
      "stateMutability": "nonpayable",
      "type": "function"
    },
    {
      "inputs": [
        {
          "internalType": "uint256",
          "name": "newNum",
          "type": "uint256"
        }
      ],
      "name": "setNumberOfWinners",
      "outputs": [],
      "stateMutability": "nonpayable",
      "type": "function"
    },
    {
      "inputs": [
        {
          "internalType": "address",
          "name": "newAddr",
          "type": "address"
        }
      ],
      "name": "setTeamAddr",
      "outputs": [],
      "stateMutability": "nonpayable",
      "type": "function"
    },
    {
      "inputs": [
        {
          "internalType": "uint256",
          "name": "_ticketPriceInCents",
          "type": "uint256"
        }
      ],
      "name": "setTicketPriceInCents",
      "outputs": [],
      "stateMutability": "nonpayable",
      "type": "function"
    },
    {
      "inputs": [],
      "name": "startRound",
      "outputs": [],
      "stateMutability": "nonpayable",
      "type": "function"
    },
    {
      "inputs": [],
      "name": "team",
      "outputs": [
        {
          "internalType": "address",
          "name": "",
          "type": "address"
        }
      ],
      "stateMutability": "view",
      "type": "function"
    },
    {
      "inputs": [],
      "name": "ticketPriceInCents",
      "outputs": [
        {
          "internalType": "uint256",
          "name": "",
          "type": "uint256"
        }
      ],
      "stateMutability": "view",
      "type": "function"
    },
    {
      "inputs": [],
      "name": "ticketPriceInWei",
      "outputs": [
        {
          "internalType": "uint256",
          "name": "",
          "type": "uint256"
        }
      ],
      "stateMutability": "view",
      "type": "function"
    },
    {
      "inputs": [],
      "name": "totalPrize",
      "outputs": [
        {
          "internalType": "uint256",
          "name": "",
          "type": "uint256"
        }
      ],
      "stateMutability": "view",
      "type": "function"
    },
    {
      "inputs": [
        {
          "internalType": "address",
          "name": "newOwner",
          "type": "address"
        }
      ],
      "name": "transferOwnership",
      "outputs": [],
      "stateMutability": "nonpayable",
      "type": "function"
    },
    {
      "inputs": [],
      "name": "trigger",
      "outputs": [],
      "stateMutability": "nonpayable",
      "type": "function"
    },
    {
      "inputs": [],
      "name": "winners",
      "outputs": [
        {
          "internalType": "address[]",
          "name": "winners_",
          "type": "address[]"
        }
      ],
      "stateMutability": "view",
      "type": "function"
    }
  ],
  "bytecode": "0x60806040523480156200001157600080fd5b506200003262000026620000ea60201b60201c565b620000f260201b60201c565b730ce446255506e92df41614c46f1d6df9cc969183600260006101000a81548173ffffffffffffffffffffffffffffffffffffffff021916908373ffffffffffffffffffffffffffffffffffffffff160217905550730ce446255506e92df41614c46f1d6df9cc969183600360006101000a81548173ffffffffffffffffffffffffffffffffffffffff021916908373ffffffffffffffffffffffffffffffffffffffff160217905550600a600881905550620001b6565b600033905090565b60008060009054906101000a900473ffffffffffffffffffffffffffffffffffffffff169050816000806101000a81548173ffffffffffffffffffffffffffffffffffffffff021916908373ffffffffffffffffffffffffffffffffffffffff1602179055508173ffffffffffffffffffffffffffffffffffffffff168173ffffffffffffffffffffffffffffffffffffffff167f8be0079c531659141344cd1fd0a4f28419497f9722a3daafe3b4186f6b6457e060405160405180910390a35050565b61273e80620001c66000396000f3fe60806040526004361061011f5760003560e01c806382b1ad50116100a0578063a54e86cb11610064578063a54e86cb1461035d578063c816206814610386578063dbe30e0c146103af578063efc08a62146103ec578063f2fde38b146104175761011f565b806382b1ad501461028857806385f2aef2146102b35780638da5cb5b146102de578063901889ba14610309578063a487bcd8146103325761011f565b806367dd74ca116100e757806367dd74ca146101ea5780636904c94d146102065780636dfb038614610231578063715018a61461025a5780637fec8d38146102715761011f565b80632342b06a146101245780634a516db01461014f57806355e3f0861461017a57806362a845ec146101915780636352211e146101ad575b600080fd5b34801561013057600080fd5b50610139610440565b6040516101469190611cd2565b60405180910390f35b34801561015b57600080fd5b50610164610446565b6040516101719190611d08565b60405180910390f35b34801561018657600080fd5b5061018f610460565b005b6101ab60048036038101906101a69190611db2565b6104e6565b005b3480156101b957600080fd5b506101d460048036038101906101cf9190611df2565b61059d565b6040516101e19190611e2e565b60405180910390f35b61020460048036038101906101ff9190611df2565b6105bd565b005b34801561021257600080fd5b5061021b610612565b6040516102289190611e2e565b60405180910390f35b34801561023d57600080fd5b5061025860048036038101906102539190611df2565b610638565b005b34801561026657600080fd5b5061026f6106be565b005b34801561027d57600080fd5b50610286610746565b005b34801561029457600080fd5b5061029d6107ec565b6040516102aa9190611cd2565b60405180910390f35b3480156102bf57600080fd5b506102c86107f9565b6040516102d59190611e2e565b60405180910390f35b3480156102ea57600080fd5b506102f361081f565b6040516103009190611e2e565b60405180910390f35b34801561031557600080fd5b50610330600480360381019061032b9190611e49565b610848565b005b34801561033e57600080fd5b5061034761091c565b6040516103549190611f34565b60405180910390f35b34801561036957600080fd5b50610384600480360381019061037f9190611df2565b6109fb565b005b34801561039257600080fd5b506103ad60048036038101906103a89190611e49565b610a81565b005b3480156103bb57600080fd5b506103d660048036038101906103d19190611e49565b610b55565b6040516103e39190611cd2565b60405180910390f35b3480156103f857600080fd5b50610401610ba1565b60405161040e9190611cd2565b60405180910390f35b34801561042357600080fd5b5061043e60048036038101906104399190611e49565b610bc9565b005b60015481565b6000600960000160009054906101000a900460ff16905090565b610468610cc1565b73ffffffffffffffffffffffffffffffffffffffff1661048661081f565b73ffffffffffffffffffffffffffffffffffffffff16146104dc576040517f08c379a00000000000000000000000000000000000000000000000000000000081526004016104d390611fb3565b60405180910390fd5b6104e4610cc9565b565b6104ee610446565b61052d576040517f08c379a00000000000000000000000000000000000000000000000000000000081526004016105249061201f565b60405180910390fd5b600033905060003490506105418185610d01565b61054b8284610d72565b61056c6064601e8361055d919061206e565b61056791906120f7565b610f6c565b61058d606460468361057e919061206e565b61058891906120f7565b6110b4565b61059782856110d3565b50505050565b60006105b68260096003016111a090919063ffffffff16565b9050919050565b6105c5610446565b610604576040517f08c379a00000000000000000000000000000000000000000000000000000000081526004016105fb9061201f565b60405180910390fd5b61060f8160006104e6565b50565b600360009054906101000a900473ffffffffffffffffffffffffffffffffffffffff1681565b610640610cc1565b73ffffffffffffffffffffffffffffffffffffffff1661065e61081f565b73ffffffffffffffffffffffffffffffffffffffff16146106b4576040517f08c379a00000000000000000000000000000000000000000000000000000000081526004016106ab90611fb3565b60405180910390fd5b8060088190555050565b6106c6610cc1565b73ffffffffffffffffffffffffffffffffffffffff166106e461081f565b73ffffffffffffffffffffffffffffffffffffffff161461073a576040517f08c379a000000000000000000000000000000000000000000000000000000000815260040161073190611fb3565b60405180910390fd5b61074460006111bd565b565b61074e610cc1565b73ffffffffffffffffffffffffffffffffffffffff1661076c61081f565b73ffffffffffffffffffffffffffffffffffffffff16146107c2576040517f08c379a00000000000000000000000000000000000000000000000000000000081526004016107b990611fb3565b60405180910390fd5b6107ca611281565b6107e26107d561091c565b6107dd6107ec565b611357565b6107ea6113b0565b565b6000600960010154905090565b600260009054906101000a900473ffffffffffffffffffffffffffffffffffffffff1681565b60008060009054906101000a900473ffffffffffffffffffffffffffffffffffffffff16905090565b600360009054906101000a900473ffffffffffffffffffffffffffffffffffffffff1673ffffffffffffffffffffffffffffffffffffffff163373ffffffffffffffffffffffffffffffffffffffff16146108d8576040517f08c379a00000000000000000000000000000000000000000000000000000000081526004016108cf90612174565b60405180910390fd5b80600360006101000a81548173ffffffffffffffffffffffffffffffffffffffff021916908373ffffffffffffffffffffffffffffffffffffffff16021790555050565b6060600061092a6006611407565b90508067ffffffffffffffff81111561094657610945612194565b5b6040519080825280602002602001820160405280156109745781602001602082028036833780820191505090505b50915060005b818110156109f65761099681600661141c90919063ffffffff16565b8382815181106109a9576109a86121c3565b5b602002602001019073ffffffffffffffffffffffffffffffffffffffff16908173ffffffffffffffffffffffffffffffffffffffff168152505080806109ee906121f2565b91505061097a565b505090565b610a03610cc1565b73ffffffffffffffffffffffffffffffffffffffff16610a2161081f565b73ffffffffffffffffffffffffffffffffffffffff1614610a77576040517f08c379a0000000000000000000000000000000000000000000000000000000008152600401610a6e90611fb3565b60405180910390fd5b8060018190555050565b600260009054906101000a900473ffffffffffffffffffffffffffffffffffffffff1673ffffffffffffffffffffffffffffffffffffffff163373ffffffffffffffffffffffffffffffffffffffff1614610b11576040517f08c379a0000000000000000000000000000000000000000000000000000000008152600401610b0890612174565b60405180910390fd5b80600260006101000a81548173ffffffffffffffffffffffffffffffffffffffff021916908373ffffffffffffffffffffffffffffffffffffffff16021790555050565b6000600960060160008373ffffffffffffffffffffffffffffffffffffffff1673ffffffffffffffffffffffffffffffffffffffff168152602001908152602001600020549050919050565b60006064600154610bb0611436565b610bba919061206e565b610bc491906120f7565b905090565b610bd1610cc1565b73ffffffffffffffffffffffffffffffffffffffff16610bef61081f565b73ffffffffffffffffffffffffffffffffffffffff1614610c45576040517f08c379a0000000000000000000000000000000000000000000000000000000008152600401610c3c90611fb3565b60405180910390fd5b600073ffffffffffffffffffffffffffffffffffffffff168173ffffffffffffffffffffffffffffffffffffffff161415610cb5576040517f08c379a0000000000000000000000000000000000000000000000000000000008152600401610cac906122ad565b60405180910390fd5b610cbe816111bd565b50565b600033905090565b600960000160009054906101000a900460ff16610cff576001600960000160006101000a81548160ff0219169083151502179055505b565b6064605f610d0d610ba1565b83610d18919061206e565b610d22919061206e565b610d2c91906120f7565b821015610d6e576040517f08c379a0000000000000000000000000000000000000000000000000000000008152600401610d6590612319565b60405180910390fd5b5050565b600560008373ffffffffffffffffffffffffffffffffffffffff1673ffffffffffffffffffffffffffffffffffffffff16815260200190815260200160002060009054906101000a900460ff16610e1c576001600560008473ffffffffffffffffffffffffffffffffffffffff1673ffffffffffffffffffffffffffffffffffffffff16815260200190815260200160002060006101000a81548160ff0219169083151502179055505b600073ffffffffffffffffffffffffffffffffffffffff168173ffffffffffffffffffffffffffffffffffffffff1614158015610ee45750600073ffffffffffffffffffffffffffffffffffffffff16600460008473ffffffffffffffffffffffffffffffffffffffff1673ffffffffffffffffffffffffffffffffffffffff16815260200190815260200160002060009054906101000a900473ffffffffffffffffffffffffffffffffffffffff1673ffffffffffffffffffffffffffffffffffffffff16145b15610f685780600460008473ffffffffffffffffffffffffffffffffffffffff1673ffffffffffffffffffffffffffffffffffffffff16815260200190815260200160002060006101000a81548173ffffffffffffffffffffffffffffffffffffffff021916908373ffffffffffffffffffffffffffffffffffffffff1602179055505b5050565b600073ffffffffffffffffffffffffffffffffffffffff16600460003373ffffffffffffffffffffffffffffffffffffffff1673ffffffffffffffffffffffffffffffffffffffff16815260200190815260200160002060009054906101000a900473ffffffffffffffffffffffffffffffffffffffff1673ffffffffffffffffffffffffffffffffffffffff16141561100e57611009816114d6565b6110b1565b61108f601e600583611020919061206e565b61102a91906120f7565b600460003373ffffffffffffffffffffffffffffffffffffffff1673ffffffffffffffffffffffffffffffffffffffff16815260200190815260200160002060009054906101000a900473ffffffffffffffffffffffffffffffffffffffff1661158a565b6110b0601e6019836110a1919061206e565b6110ab91906120f7565b611763565b5b50565b80600960010160008282546110c99190612339565b9250508190555050565b60006110dd611817565b905060005b8281101561112557611103828560096003016118249092919063ffffffff16565b50818061110f906121f2565b925050808061111d906121f2565b9150506110e2565b5081600960060160008573ffffffffffffffffffffffffffffffffffffffff1673ffffffffffffffffffffffffffffffffffffffff16815260200190815260200160002060008282546111789190612339565b9250508190555081600960020160008282546111949190612339565b92505081905550505050565b60006111b2836000018360001b611859565b60001c905092915050565b60008060009054906101000a900473ffffffffffffffffffffffffffffffffffffffff169050816000806101000a81548173ffffffffffffffffffffffffffffffffffffffff021916908373ffffffffffffffffffffffffffffffffffffffff1602179055508173ffffffffffffffffffffffffffffffffffffffff168173ffffffffffffffffffffffffffffffffffffffff167f8be0079c531659141344cd1fd0a4f28419497f9722a3daafe3b4186f6b6457e060405160405180910390a35050565b600061128b611817565b90506008548110156112d2576040517f08c379a00000000000000000000000000000000000000000000000000000000081526004016112c990612401565b60405180910390fd5b6112da6118d5565b6000805b6008546112eb6006611407565b101561135257826112fb836118f3565b6113059190612421565b91506113108261059d565b905061132982600960030161192a90919063ffffffff16565b50828061133590612452565b93505061134c81600661194490919063ffffffff16565b506112de565b505050565b60008251905060005b818110156113aa5761139784828151811061137e5761137d6121c3565b5b6020026020010151838561139291906120f7565b611974565b80806113a2906121f2565b915050611360565b50505050565b6009600080820160006101000a81549060ff02191690556001820160009055600282016000905560038201600080820160008082016000808201600080820160006113fb9190611c7b565b50505050505050505050565b6000611415826000016119bf565b9050919050565b600061142b83600001836119d0565b60001c905092915050565b600073d0d5e3db44de05e9f294bb0a3beeaf030de24ada73ffffffffffffffffffffffffffffffffffffffff166350d25bcd6040518163ffffffff1660e01b8152600401602060405180830381865afa158015611497573d6000803e3d6000fd5b505050506040513d601f19601f820116820180604052508101906114bb91906124b2565b6a52b7d2dcc80cd2e40000006114d191906124df565b905090565b6114ff6114e161081f565b601e6005846114f0919061206e565b6114fa91906120f7565b611974565b611543600260009054906101000a900473ffffffffffffffffffffffffffffffffffffffff16601e600584611534919061206e565b61153e91906120f7565b611974565b611587600360009054906101000a900473ffffffffffffffffffffffffffffffffffffffff16601e601484611578919061206e565b61158291906120f7565b611974565b50565b600560008273ffffffffffffffffffffffffffffffffffffffff1673ffffffffffffffffffffffffffffffffffffffff16815260200190815260200160002060009054906101000a900460ff16611616576040517f08c379a000000000000000000000000000000000000000000000000000000000815260040161160d906125bb565b60405180910390fd5b60005b6001816116269190612339565b9050600073ffffffffffffffffffffffffffffffffffffffff16600460008473ffffffffffffffffffffffffffffffffffffffff1673ffffffffffffffffffffffffffffffffffffffff16815260200190815260200160002060009054906101000a900473ffffffffffffffffffffffffffffffffffffffff1673ffffffffffffffffffffffffffffffffffffffff16141580156116c45750600581105b6116195760005b8181101561175d576116e88383866116e391906120f7565b611974565b600460008473ffffffffffffffffffffffffffffffffffffffff1673ffffffffffffffffffffffffffffffffffffffff16815260200190815260200160002060009054906101000a900473ffffffffffffffffffffffffffffffffffffffff1692508080611755906121f2565b9150506116cb565b50505050565b61178c61176e61081f565b601960058461177d919061206e565b61178791906120f7565b611974565b6117d0600260009054906101000a900473ffffffffffffffffffffffffffffffffffffffff1660196005846117c1919061206e565b6117cb91906120f7565b611974565b611814600360009054906101000a900473ffffffffffffffffffffffffffffffffffffffff166019601484611805919061206e565b61180f91906120f7565b611974565b50565b6000600960020154905090565b6000611850846000018460001b8473ffffffffffffffffffffffffffffffffffffffff1660001b6119fb565b90509392505050565b6000808360020160008481526020019081526020016000205490506000801b8114158061188c575061188b8484611a36565b5b6118cb576040517f08c379a00000000000000000000000000000000000000000000000000000000081526004016118c290612627565b60405180910390fd5b8091505092915050565b60066000808201600080820160006118ed9190611c7b565b50505050565b600044428360405160200161190a93929190612668565b6040516020818303038152906040528051906020012060001c9050919050565b600061193c836000018360001b611a56565b905092915050565b600061196c836000018373ffffffffffffffffffffffffffffffffffffffff1660001b611a8f565b905092915050565b8173ffffffffffffffffffffffffffffffffffffffff166108fc829081150290604051600060405180830381858888f193505050501580156119ba573d6000803e3d6000fd5b505050565b600081600001805490509050919050565b60008260000182815481106119e8576119e76121c3565b5b9060005260206000200154905092915050565b60008184600201600085815260200190815260200160002081905550611a2d8385600001611aff90919063ffffffff16565b90509392505050565b6000611a4e8284600001611b1690919063ffffffff16565b905092915050565b600082600201600083815260200190815260200160002060009055611a878284600001611b2d90919063ffffffff16565b905092915050565b6000611a9b8383611b44565b611af4578260000182908060018154018082558091505060019003906000526020600020016000909190919091505582600001805490508360010160008481526020019081526020016000208190555060019050611af9565b600090505b92915050565b6000611b0e8360000183611a8f565b905092915050565b6000611b258360000183611b44565b905092915050565b6000611b3c8360000183611b67565b905092915050565b600080836001016000848152602001908152602001600020541415905092915050565b60008083600101600084815260200190815260200160002054905060008114611c6f576000600182611b9991906126a5565b9050600060018660000180549050611bb191906126a5565b9050818114611c20576000866000018281548110611bd257611bd16121c3565b5b9060005260206000200154905080876000018481548110611bf657611bf56121c3565b5b90600052602060002001819055508387600101600083815260200190815260200160002081905550505b85600001805480611c3457611c336126d9565b5b600190038181906000526020600020016000905590558560010160008681526020019081526020016000206000905560019350505050611c75565b60009150505b92915050565b5080546000825590600052602060002090810190611c999190611c9c565b50565b5b80821115611cb5576000816000905550600101611c9d565b5090565b6000819050919050565b611ccc81611cb9565b82525050565b6000602082019050611ce76000830184611cc3565b92915050565b60008115159050919050565b611d0281611ced565b82525050565b6000602082019050611d1d6000830184611cf9565b92915050565b600080fd5b611d3181611cb9565b8114611d3c57600080fd5b50565b600081359050611d4e81611d28565b92915050565b600073ffffffffffffffffffffffffffffffffffffffff82169050919050565b6000611d7f82611d54565b9050919050565b611d8f81611d74565b8114611d9a57600080fd5b50565b600081359050611dac81611d86565b92915050565b60008060408385031215611dc957611dc8611d23565b5b6000611dd785828601611d3f565b9250506020611de885828601611d9d565b9150509250929050565b600060208284031215611e0857611e07611d23565b5b6000611e1684828501611d3f565b91505092915050565b611e2881611d74565b82525050565b6000602082019050611e436000830184611e1f565b92915050565b600060208284031215611e5f57611e5e611d23565b5b6000611e6d84828501611d9d565b91505092915050565b600081519050919050565b600082825260208201905092915050565b6000819050602082019050919050565b611eab81611d74565b82525050565b6000611ebd8383611ea2565b60208301905092915050565b6000602082019050919050565b6000611ee182611e76565b611eeb8185611e81565b9350611ef683611e92565b8060005b83811015611f27578151611f0e8882611eb1565b9750611f1983611ec9565b925050600181019050611efa565b5085935050505092915050565b60006020820190508181036000830152611f4e8184611ed6565b905092915050565b600082825260208201905092915050565b7f4f776e61626c653a2063616c6c6572206973206e6f7420746865206f776e6572600082015250565b6000611f9d602083611f56565b9150611fa882611f67565b602082019050919050565b60006020820190508181036000830152611fcc81611f90565b9050919050565b7f5469636b65743a20726f756e6420686173206e6f7420737461727465642e0000600082015250565b6000612009601e83611f56565b915061201482611fd3565b602082019050919050565b6000602082019050818103600083015261203881611ffc565b9050919050565b7f4e487b7100000000000000000000000000000000000000000000000000000000600052601160045260246000fd5b600061207982611cb9565b915061208483611cb9565b9250817fffffffffffffffffffffffffffffffffffffffffffffffffffffffffffffffff04831182151516156120bd576120bc61203f565b5b828202905092915050565b7f4e487b7100000000000000000000000000000000000000000000000000000000600052601260045260246000fd5b600061210282611cb9565b915061210d83611cb9565b92508261211d5761211c6120c8565b5b828204905092915050565b7f5061796d656e74733a20796f752068617665206e6f7420616363657373000000600082015250565b600061215e601d83611f56565b915061216982612128565b602082019050919050565b6000602082019050818103600083015261218d81612151565b9050919050565b7f4e487b7100000000000000000000000000000000000000000000000000000000600052604160045260246000fd5b7f4e487b7100000000000000000000000000000000000000000000000000000000600052603260045260246000fd5b60006121fd82611cb9565b91507fffffffffffffffffffffffffffffffffffffffffffffffffffffffffffffffff8214156122305761222f61203f565b5b600182019050919050565b7f4f776e61626c653a206e6577206f776e657220697320746865207a65726f206160008201527f6464726573730000000000000000000000000000000000000000000000000000602082015250565b6000612297602683611f56565b91506122a28261223b565b604082019050919050565b600060208201905081810360008301526122c68161228a565b9050919050565b7f4c6f74746572793a20696e73756666696369656e742066656500000000000000600082015250565b6000612303601983611f56565b915061230e826122cd565b602082019050919050565b60006020820190508181036000830152612332816122f6565b9050919050565b600061234482611cb9565b915061234f83611cb9565b9250827fffffffffffffffffffffffffffffffffffffffffffffffffffffffffffffffff038211156123845761238361203f565b5b828201905092915050565b7f5469636b6574733a206e756d626572206f66207469636b65747320686173206e60008201527f6f74206265656e20726561636865642074686520716f7572756d000000000000602082015250565b60006123eb603a83611f56565b91506123f68261238f565b604082019050919050565b6000602082019050818103600083015261241a816123de565b9050919050565b600061242c82611cb9565b915061243783611cb9565b925082612447576124466120c8565b5b828206905092915050565b600061245d82611cb9565b915060008214156124715761247061203f565b5b600182039050919050565b6000819050919050565b61248f8161247c565b811461249a57600080fd5b50565b6000815190506124ac81612486565b92915050565b6000602082840312156124c8576124c7611d23565b5b60006124d68482850161249d565b91505092915050565b60006124ea8261247c565b91506124f58361247c565b925082612505576125046120c8565b5b600160000383147f80000000000000000000000000000000000000000000000000000000000000008314161561253e5761253d61203f565b5b828205905092915050565b7f4c6f74746572793a20756e7265676973746572656420726566657272616c206160008201527f6464726573730000000000000000000000000000000000000000000000000000602082015250565b60006125a5602683611f56565b91506125b082612549565b604082019050919050565b600060208201905081810360008301526125d481612598565b9050919050565b7f456e756d657261626c654d61703a206e6f6e6578697374656e74206b65790000600082015250565b6000612611601e83611f56565b915061261c826125db565b602082019050919050565b6000602082019050818103600083015261264081612604565b9050919050565b6000819050919050565b61266261265d82611cb9565b612647565b82525050565b60006126748286612651565b6020820191506126848285612651565b6020820191506126948284612651565b602082019150819050949350505050565b60006126b082611cb9565b91506126bb83611cb9565b9250828210156126ce576126cd61203f565b5b828203905092915050565b7f4e487b7100000000000000000000000000000000000000000000000000000000600052603160045260246000fdfea264697066735822122039b3d45a25cb019afa3d4bf3ec2ab5a3aa4b6cccbe331b929fec8b9de8cfeb9f64736f6c634300080b0033",
  "linkReferences": {},
  "deployedLinkReferences": {}
}