{
  "_format": "hh-sol-artifact-1",
  "contractName": "Tickets",
  "sourceName": "contracts/Tickets.sol",
  "abi": [
    {
      "inputs": [],
      "stateMutability": "nonpayable",
      "type": "constructor"
    },
    {
      "anonymous": false,
      "inputs": [
        {
          "indexed": true,
          "internalType": "address",
          "name": "previousOwner",
          "type": "address"
        },
        {
          "indexed": true,
          "internalType": "address",
          "name": "newOwner",
          "type": "address"
        }
      ],
      "name": "OwnershipTransferred",
      "type": "event"
    },
    {
      "inputs": [
        {
          "internalType": "address",
          "name": "member",
          "type": "address"
        }
      ],
      "name": "memberSupply",
      "outputs": [
        {
          "internalType": "uint256",
          "name": "",
          "type": "uint256"
        }
      ],
      "stateMutability": "view",
      "type": "function"
    },
    {
      "inputs": [],
      "name": "owner",
      "outputs": [
        {
          "internalType": "address",
          "name": "",
          "type": "address"
        }
      ],
      "stateMutability": "view",
      "type": "function"
    },
    {
      "inputs": [
        {
          "internalType": "uint256",
          "name": "ticketId",
          "type": "uint256"
        }
      ],
      "name": "ownerOf",
      "outputs": [
        {
          "internalType": "address",
          "name": "",
          "type": "address"
        }
      ],
      "stateMutability": "view",
      "type": "function"
    },
    {
      "inputs": [],
      "name": "renounceOwnership",
      "outputs": [],
      "stateMutability": "nonpayable",
      "type": "function"
    },
    {
      "inputs": [],
      "name": "roundHasStarted",
      "outputs": [
        {
          "internalType": "bool",
          "name": "",
          "type": "bool"
        }
      ],
      "stateMutability": "view",
      "type": "function"
    },
    {
      "inputs": [
        {
          "internalType": "uint256",
          "name": "newNum",
          "type": "uint256"
        }
      ],
      "name": "setNumberOfWinners",
      "outputs": [],
      "stateMutability": "nonpayable",
      "type": "function"
    },
    {
      "inputs": [],
      "name": "totalPrize",
      "outputs": [
        {
          "internalType": "uint256",
          "name": "",
          "type": "uint256"
        }
      ],
      "stateMutability": "view",
      "type": "function"
    },
    {
      "inputs": [
        {
          "internalType": "address",
          "name": "newOwner",
          "type": "address"
        }
      ],
      "name": "transferOwnership",
      "outputs": [],
      "stateMutability": "nonpayable",
      "type": "function"
    },
    {
      "inputs": [],
      "name": "winners",
      "outputs": [
        {
          "internalType": "address[]",
          "name": "winners_",
          "type": "address[]"
        }
      ],
      "stateMutability": "view",
      "type": "function"
    }
  ],
  "bytecode": "0x608060405234801561001057600080fd5b5061002d61002261003a60201b60201c565b61004260201b60201c565b600a600381905550610106565b600033905090565b60008060009054906101000a900473ffffffffffffffffffffffffffffffffffffffff169050816000806101000a81548173ffffffffffffffffffffffffffffffffffffffff021916908373ffffffffffffffffffffffffffffffffffffffff1602179055508173ffffffffffffffffffffffffffffffffffffffff168173ffffffffffffffffffffffffffffffffffffffff167f8be0079c531659141344cd1fd0a4f28419497f9722a3daafe3b4186f6b6457e060405160405180910390a35050565b610c61806101156000396000f3fe608060405234801561001057600080fd5b50600436106100935760003560e01c806382b1ad501161006657806382b1ad501461010c5780638da5cb5b1461012a578063a487bcd814610148578063dbe30e0c14610166578063f2fde38b1461019657610093565b80634a516db0146100985780636352211e146100b65780636dfb0386146100e6578063715018a614610102575b600080fd5b6100a06101b2565b6040516100ad9190610798565b60405180910390f35b6100d060048036038101906100cb91906107ee565b6101cc565b6040516100dd919061085c565b60405180910390f35b61010060048036038101906100fb91906107ee565b6101ec565b005b61010a610272565b005b6101146102fa565b6040516101219190610886565b60405180910390f35b610132610307565b60405161013f919061085c565b60405180910390f35b610150610330565b60405161015d919061095f565b60405180910390f35b610180600480360381019061017b91906109ad565b61040f565b60405161018d9190610886565b60405180910390f35b6101b060048036038101906101ab91906109ad565b61045b565b005b6000600460000160009054906101000a900460ff16905090565b60006101e582600460030161055390919063ffffffff16565b9050919050565b6101f4610570565b73ffffffffffffffffffffffffffffffffffffffff16610212610307565b73ffffffffffffffffffffffffffffffffffffffff1614610268576040517f08c379a000000000000000000000000000000000000000000000000000000000815260040161025f90610a37565b60405180910390fd5b8060038190555050565b61027a610570565b73ffffffffffffffffffffffffffffffffffffffff16610298610307565b73ffffffffffffffffffffffffffffffffffffffff16146102ee576040517f08c379a00000000000000000000000000000000000000000000000000000000081526004016102e590610a37565b60405180910390fd5b6102f86000610578565b565b6000600460010154905090565b60008060009054906101000a900473ffffffffffffffffffffffffffffffffffffffff16905090565b6060600061033e600161063c565b90508067ffffffffffffffff81111561035a57610359610a57565b5b6040519080825280602002602001820160405280156103885781602001602082028036833780820191505090505b50915060005b8181101561040a576103aa81600161065190919063ffffffff16565b8382815181106103bd576103bc610a86565b5b602002602001019073ffffffffffffffffffffffffffffffffffffffff16908173ffffffffffffffffffffffffffffffffffffffff1681525050808061040290610ae4565b91505061038e565b505090565b6000600460060160008373ffffffffffffffffffffffffffffffffffffffff1673ffffffffffffffffffffffffffffffffffffffff168152602001908152602001600020549050919050565b610463610570565b73ffffffffffffffffffffffffffffffffffffffff16610481610307565b73ffffffffffffffffffffffffffffffffffffffff16146104d7576040517f08c379a00000000000000000000000000000000000000000000000000000000081526004016104ce90610a37565b60405180910390fd5b600073ffffffffffffffffffffffffffffffffffffffff168173ffffffffffffffffffffffffffffffffffffffff161415610547576040517f08c379a000000000000000000000000000000000000000000000000000000000815260040161053e90610b9f565b60405180910390fd5b61055081610578565b50565b6000610565836000018360001b61066b565b60001c905092915050565b600033905090565b60008060009054906101000a900473ffffffffffffffffffffffffffffffffffffffff169050816000806101000a81548173ffffffffffffffffffffffffffffffffffffffff021916908373ffffffffffffffffffffffffffffffffffffffff1602179055508173ffffffffffffffffffffffffffffffffffffffff168173ffffffffffffffffffffffffffffffffffffffff167f8be0079c531659141344cd1fd0a4f28419497f9722a3daafe3b4186f6b6457e060405160405180910390a35050565b600061064a826000016106e7565b9050919050565b600061066083600001836106f8565b60001c905092915050565b6000808360020160008481526020019081526020016000205490506000801b8114158061069e575061069d8484610723565b5b6106dd576040517f08c379a00000000000000000000000000000000000000000000000000000000081526004016106d490610c0b565b60405180910390fd5b8091505092915050565b600081600001805490509050919050565b60008260000182815481106107105761070f610a86565b5b9060005260206000200154905092915050565b600061073b828460000161074390919063ffffffff16565b905092915050565b6000610752836000018361075a565b905092915050565b600080836001016000848152602001908152602001600020541415905092915050565b60008115159050919050565b6107928161077d565b82525050565b60006020820190506107ad6000830184610789565b92915050565b600080fd5b6000819050919050565b6107cb816107b8565b81146107d657600080fd5b50565b6000813590506107e8816107c2565b92915050565b600060208284031215610804576108036107b3565b5b6000610812848285016107d9565b91505092915050565b600073ffffffffffffffffffffffffffffffffffffffff82169050919050565b60006108468261081b565b9050919050565b6108568161083b565b82525050565b6000602082019050610871600083018461084d565b92915050565b610880816107b8565b82525050565b600060208201905061089b6000830184610877565b92915050565b600081519050919050565b600082825260208201905092915050565b6000819050602082019050919050565b6108d68161083b565b82525050565b60006108e883836108cd565b60208301905092915050565b6000602082019050919050565b600061090c826108a1565b61091681856108ac565b9350610921836108bd565b8060005b8381101561095257815161093988826108dc565b9750610944836108f4565b925050600181019050610925565b5085935050505092915050565b600060208201905081810360008301526109798184610901565b905092915050565b61098a8161083b565b811461099557600080fd5b50565b6000813590506109a781610981565b92915050565b6000602082840312156109c3576109c26107b3565b5b60006109d184828501610998565b91505092915050565b600082825260208201905092915050565b7f4f776e61626c653a2063616c6c6572206973206e6f7420746865206f776e6572600082015250565b6000610a216020836109da565b9150610a2c826109eb565b602082019050919050565b60006020820190508181036000830152610a5081610a14565b9050919050565b7f4e487b7100000000000000000000000000000000000000000000000000000000600052604160045260246000fd5b7f4e487b7100000000000000000000000000000000000000000000000000000000600052603260045260246000fd5b7f4e487b7100000000000000000000000000000000000000000000000000000000600052601160045260246000fd5b6000610aef826107b8565b91507fffffffffffffffffffffffffffffffffffffffffffffffffffffffffffffffff821415610b2257610b21610ab5565b5b600182019050919050565b7f4f776e61626c653a206e6577206f776e657220697320746865207a65726f206160008201527f6464726573730000000000000000000000000000000000000000000000000000602082015250565b6000610b896026836109da565b9150610b9482610b2d565b604082019050919050565b60006020820190508181036000830152610bb881610b7c565b9050919050565b7f456e756d657261626c654d61703a206e6f6e6578697374656e74206b65790000600082015250565b6000610bf5601e836109da565b9150610c0082610bbf565b602082019050919050565b60006020820190508181036000830152610c2481610be8565b905091905056fea26469706673582212204c737122daa2f1f75909c2f7a56a5ffb474e80df088a7b2a10e10183a2916a3864736f6c634300080b0033",
  "linkReferences": {},
  "deployedLinkReferences": {}
}