{
  "_format": "hh-sol-artifact-1",
  "contractName": "Tickets",
  "sourceName": "contracts/Tickets.sol",
  "abi": [
    {
      "inputs": [],
      "stateMutability": "nonpayable",
      "type": "constructor"
    },
    {
      "anonymous": false,
      "inputs": [
        {
          "indexed": true,
          "internalType": "address",
          "name": "previousOwner",
          "type": "address"
        },
        {
          "indexed": true,
          "internalType": "address",
          "name": "newOwner",
          "type": "address"
        }
      ],
      "name": "OwnershipTransferred",
      "type": "event"
    },
    {
      "inputs": [
        {
          "internalType": "address",
          "name": "member",
          "type": "address"
        }
      ],
      "name": "memberSupply",
      "outputs": [
        {
          "internalType": "uint256",
          "name": "",
          "type": "uint256"
        }
      ],
      "stateMutability": "view",
      "type": "function"
    },
    {
      "inputs": [],
      "name": "owner",
      "outputs": [
        {
          "internalType": "address",
          "name": "",
          "type": "address"
        }
      ],
      "stateMutability": "view",
      "type": "function"
    },
    {
      "inputs": [
        {
          "internalType": "uint256",
          "name": "ticketId",
          "type": "uint256"
        }
      ],
      "name": "ownerOf",
      "outputs": [
        {
          "internalType": "address",
          "name": "",
          "type": "address"
        }
      ],
      "stateMutability": "view",
      "type": "function"
    },
    {
      "inputs": [],
      "name": "renounceOwnership",
      "outputs": [],
      "stateMutability": "nonpayable",
      "type": "function"
    },
    {
      "inputs": [
        {
          "internalType": "uint256",
          "name": "newNum",
          "type": "uint256"
        }
      ],
      "name": "setNumberOfWinners",
      "outputs": [],
      "stateMutability": "nonpayable",
      "type": "function"
    },
    {
      "inputs": [],
      "name": "totalPrize",
      "outputs": [
        {
          "internalType": "uint256",
          "name": "",
          "type": "uint256"
        }
      ],
      "stateMutability": "view",
      "type": "function"
    },
    {
      "inputs": [
        {
          "internalType": "address",
          "name": "newOwner",
          "type": "address"
        }
      ],
      "name": "transferOwnership",
      "outputs": [],
      "stateMutability": "nonpayable",
      "type": "function"
    },
    {
      "inputs": [],
      "name": "winners",
      "outputs": [
        {
          "internalType": "address[]",
          "name": "winners_",
          "type": "address[]"
        }
      ],
      "stateMutability": "view",
      "type": "function"
    }
  ],
  "bytecode": "0x608060405234801561001057600080fd5b5061002d61002261003a60201b60201c565b61004260201b60201c565b600a600381905550610106565b600033905090565b60008060009054906101000a900473ffffffffffffffffffffffffffffffffffffffff169050816000806101000a81548173ffffffffffffffffffffffffffffffffffffffff021916908373ffffffffffffffffffffffffffffffffffffffff1602179055508173ffffffffffffffffffffffffffffffffffffffff168173ffffffffffffffffffffffffffffffffffffffff167f8be0079c531659141344cd1fd0a4f28419497f9722a3daafe3b4186f6b6457e060405160405180910390a35050565b610be8806101156000396000f3fe608060405234801561001057600080fd5b50600436106100885760003560e01c80638da5cb5b1161005b5780638da5cb5b14610101578063a487bcd81461011f578063dbe30e0c1461013d578063f2fde38b1461016d57610088565b80636352211e1461008d5780636dfb0386146100bd578063715018a6146100d957806382b1ad50146100e3575b600080fd5b6100a760048036038101906100a29190610775565b610189565b6040516100b491906107e3565b60405180910390f35b6100d760048036038101906100d29190610775565b6101a9565b005b6100e161022f565b005b6100eb6102b7565b6040516100f8919061080d565b60405180910390f35b6101096102c4565b60405161011691906107e3565b60405180910390f35b6101276102ed565b60405161013491906108e6565b60405180910390f35b61015760048036038101906101529190610934565b6103cc565b604051610164919061080d565b60405180910390f35b61018760048036038101906101829190610934565b610418565b005b60006101a282600460020161051090919063ffffffff16565b9050919050565b6101b161052d565b73ffffffffffffffffffffffffffffffffffffffff166101cf6102c4565b73ffffffffffffffffffffffffffffffffffffffff1614610225576040517f08c379a000000000000000000000000000000000000000000000000000000000815260040161021c906109be565b60405180910390fd5b8060038190555050565b61023761052d565b73ffffffffffffffffffffffffffffffffffffffff166102556102c4565b73ffffffffffffffffffffffffffffffffffffffff16146102ab576040517f08c379a00000000000000000000000000000000000000000000000000000000081526004016102a2906109be565b60405180910390fd5b6102b56000610535565b565b6000600460000154905090565b60008060009054906101000a900473ffffffffffffffffffffffffffffffffffffffff16905090565b606060006102fb60016105f9565b90508067ffffffffffffffff811115610317576103166109de565b5b6040519080825280602002602001820160405280156103455781602001602082028036833780820191505090505b50915060005b818110156103c75761036781600161060e90919063ffffffff16565b83828151811061037a57610379610a0d565b5b602002602001019073ffffffffffffffffffffffffffffffffffffffff16908173ffffffffffffffffffffffffffffffffffffffff168152505080806103bf90610a6b565b91505061034b565b505090565b6000600460050160008373ffffffffffffffffffffffffffffffffffffffff1673ffffffffffffffffffffffffffffffffffffffff168152602001908152602001600020549050919050565b61042061052d565b73ffffffffffffffffffffffffffffffffffffffff1661043e6102c4565b73ffffffffffffffffffffffffffffffffffffffff1614610494576040517f08c379a000000000000000000000000000000000000000000000000000000000815260040161048b906109be565b60405180910390fd5b600073ffffffffffffffffffffffffffffffffffffffff168173ffffffffffffffffffffffffffffffffffffffff161415610504576040517f08c379a00000000000000000000000000000000000000000000000000000000081526004016104fb90610b26565b60405180910390fd5b61050d81610535565b50565b6000610522836000018360001b610628565b60001c905092915050565b600033905090565b60008060009054906101000a900473ffffffffffffffffffffffffffffffffffffffff169050816000806101000a81548173ffffffffffffffffffffffffffffffffffffffff021916908373ffffffffffffffffffffffffffffffffffffffff1602179055508173ffffffffffffffffffffffffffffffffffffffff168173ffffffffffffffffffffffffffffffffffffffff167f8be0079c531659141344cd1fd0a4f28419497f9722a3daafe3b4186f6b6457e060405160405180910390a35050565b6000610607826000016106a4565b9050919050565b600061061d83600001836106b5565b60001c905092915050565b6000808360020160008481526020019081526020016000205490506000801b8114158061065b575061065a84846106e0565b5b61069a576040517f08c379a000000000000000000000000000000000000000000000000000000000815260040161069190610b92565b60405180910390fd5b8091505092915050565b600081600001805490509050919050565b60008260000182815481106106cd576106cc610a0d565b5b9060005260206000200154905092915050565b60006106f8828460000161070090919063ffffffff16565b905092915050565b600061070f8360000183610717565b905092915050565b600080836001016000848152602001908152602001600020541415905092915050565b600080fd5b6000819050919050565b6107528161073f565b811461075d57600080fd5b50565b60008135905061076f81610749565b92915050565b60006020828403121561078b5761078a61073a565b5b600061079984828501610760565b91505092915050565b600073ffffffffffffffffffffffffffffffffffffffff82169050919050565b60006107cd826107a2565b9050919050565b6107dd816107c2565b82525050565b60006020820190506107f860008301846107d4565b92915050565b6108078161073f565b82525050565b600060208201905061082260008301846107fe565b92915050565b600081519050919050565b600082825260208201905092915050565b6000819050602082019050919050565b61085d816107c2565b82525050565b600061086f8383610854565b60208301905092915050565b6000602082019050919050565b600061089382610828565b61089d8185610833565b93506108a883610844565b8060005b838110156108d95781516108c08882610863565b97506108cb8361087b565b9250506001810190506108ac565b5085935050505092915050565b600060208201905081810360008301526109008184610888565b905092915050565b610911816107c2565b811461091c57600080fd5b50565b60008135905061092e81610908565b92915050565b60006020828403121561094a5761094961073a565b5b60006109588482850161091f565b91505092915050565b600082825260208201905092915050565b7f4f776e61626c653a2063616c6c6572206973206e6f7420746865206f776e6572600082015250565b60006109a8602083610961565b91506109b382610972565b602082019050919050565b600060208201905081810360008301526109d78161099b565b9050919050565b7f4e487b7100000000000000000000000000000000000000000000000000000000600052604160045260246000fd5b7f4e487b7100000000000000000000000000000000000000000000000000000000600052603260045260246000fd5b7f4e487b7100000000000000000000000000000000000000000000000000000000600052601160045260246000fd5b6000610a768261073f565b91507fffffffffffffffffffffffffffffffffffffffffffffffffffffffffffffffff821415610aa957610aa8610a3c565b5b600182019050919050565b7f4f776e61626c653a206e6577206f776e657220697320746865207a65726f206160008201527f6464726573730000000000000000000000000000000000000000000000000000602082015250565b6000610b10602683610961565b9150610b1b82610ab4565b604082019050919050565b60006020820190508181036000830152610b3f81610b03565b9050919050565b7f456e756d657261626c654d61703a206e6f6e6578697374656e74206b65790000600082015250565b6000610b7c601e83610961565b9150610b8782610b46565b602082019050919050565b60006020820190508181036000830152610bab81610b6f565b905091905056fea264697066735822122098003ac27ac3c8b47c9705ac996b46528add1fbc157419b751c4489f2ec8b1f664736f6c634300080b0033",
  "linkReferences": {},
  "deployedLinkReferences": {}
}